:020000040800F2
:10000000500A00204D020008C1430008F7400008D4
:10001000BD430008AB210008894E00080000000025
:10002000000000000000000000000000C7430008BE
:10003000FB22000800000000C5430008C943000877
:1000400067020008670200086702000867020008EC
:1000500067020008670200086702000867020008DC
:1000600067020008670200086702000867020008CC
:1000700067020008670200086702000867020008BC
:10008000B1210008C12100086702000867020008CA
:10009000670200086702000867020008670200089C
:1000A000670200086702000867020008670200088C
:1000B000670200086702000867020008670200087C
:1000C000670200086702000867020008670200086C
:1000D00067020008694E0008794E000867020008B0
:1000E000670200086702000867020008670200084C
:1000F000670200086702000867020008670200083C
:1001000067020008670200089944000867020008B7
:10011000670200086702000867020008670200081B
:100120006702000867020008D12100086702000882
:1001300067020008000000000000000067020008DD
:1001400067020008670200086702000867020008EB
:100150006702000867020008E12100086702000842
:1001600067020008670200086702000867020008CB
:10017000670200086702000800000000000000009D
:10018000670200086702000800F002F800F04FF86C
:100190000AA090E8000C82448344AAF10107DA45E2
:1001A00001D100F044F8AFF2090EBAE80F0013F0E5
:1001B000010F18BFFB1A43F0010318472C5300002E
:1001C0004C530000103A24BF78C878C1FAD85207BF
:1001D00024BF30C830C144BF04680C6070470000C1
:1001E0000023002400250026103A28BF78C1FBD840
:1001F000520728BF30C148BF0B607047662905F021
:100200001B80642900F0EE80782900F0278100200F
:1002100070471FB505F00BF800F0AEFC040000209D
:10022000002104F077FFE0601FBD10B510BD00F0A5
:10023000BFFD1146FFF7EDFF04F00CFF00F0DDFD00
:1002400003B4FFF7F2FF03BC00F020FE094880472B
:1002500009480047FEE7FEE7FEE7FEE7FEE7FEE7A8
:10026000FEE7FEE7FEE7FEE704480549054A064BC0
:1002700070470000854400088901000850040020F0
:10028000500A0020500600205006002053EA020CBD
:1002900000F069802DE9F04B4FF00006002B1FBFE6
:1002A000B3FA83F503FA05F424FA05F65E4012BFAB
:1002B0001643B2FA82F502FA05F4C5F120051EBF15
:1002C00022FA05FC44EA0C04203556EA044C4FEAB5
:1002D000144418BF641C4FF000084FF0000990420E
:1002E00071EB030C39D3002919BFB1FA81F701FA78
:1002F00007F6B0FA80F700FA07F6C7F120071EBF2D
:1003000020FA07FC46EA0C062037B6FBF4FCA7EB04
:100310000507103F07F01F0BCBF120060CFA0BFB73
:100320002CFA06F644BFB3460026202FA4BF5E4633
:100330004FF0000B5BEA060C08BF4FF0010B19EB06
:100340000B09ABFB027C48EB0608C01B06FB02CC8A
:100350000BFB03CC71EB0C01C1E70B460246414697
:100360004846BDE8F08B13B54FF000004FF0000198
:10037000AFF30080BDE81C40704700000FB4044993
:1003800010B503AA029800F0E5FB10BC5DF814FB61
:100390001C00002070B5044685690068C10601D5BF
:1003A000302600E02026C00707D070BDD4E9012127
:1003B00030469047206A401C20626D1EF6D570BD05
:1003C00070B5044685690078C00707D170BDD4E9CF
:1003D000012120209047206A401C20626D1EF6D526
:1003E00070BD00002DE9F041064600241068752913
:1003F000314616A510D0AFF30080002802DA404243
:1004000013A507E031688A0701D512A502E0490764
:1004100004D511A5012401E0AFF3008000210A22D8
:1004200006F1240709E0B0FBF2FCB0FBF2F302FB9B
:100430001C00303078541846491C0028F3D123465C
:100440002A463046BDE8F04100F01CB9000000002B
:100450002D0000002B0000002000000070B50446B5
:100460000D4621461068AFF300802188090502D5AA
:100470000F4A7A4402E00E4A7A440E32002104F117
:10048000240305E000F00F060009965D5E54491C48
:100490000028F7D120780023000704D5702D02D062
:1004A00009B1022311322046BDE8704000F0EAB8DD
:1004B000E64D00002DE9F05F894604464FF0000A42
:1004C000DFF824B1FB44C0F820A02046E16888474B
:1004D00000287DD0252806D0D4E901219047206A44
:1004E000401C2062F1E700255F462046E16888470E
:1004F0002028064607DB312E05D2B81910F8200C4B
:1005000008B10543F1E7A80701D525F00405C4F8B3
:100510001CA00027C4F818A02A2E09D0304604F0E9
:10052000E9FC38B304EB8708303EC8F8186019E0DE
:1005300059F8041B204604EB87029161E168884763
:10054000012F064618D1E069002820DA25F02005A1
:100550001DE0D8F8180000EB800006EB40003038B2
:10056000C8F818002046E1688847064604F0C2FC37
:100570000028EED1012F0AD02E2E08D12046E168A6
:1005800088477F1C0646022F45F02005C4DBA06982
:10059000002803DA404245F00105A061E80701D0D8
:1005A00025F01005A6B1A6F14100192802D8203681
:1005B00045F400654A463146204625604D46FFF722
:1005C0001DFE60B1012807D0ED1D25F0070000E0F9
:1005D00007E000F1080978E705F1040975E73046FE
:1005E0007AE7206ABDE8F09FBC4D00004FF00002A2
:1005F0000429C0F0128010F0030C00F01B80CCF135
:10060000040CBCF1020F18BF00F8012BA8BF20F8A2
:10061000022BA1EB0C0100F00DB85FEAC17C24BFF6
:1006200000F8012B00F8012B48BF00F8012B7047A0
:100630004FF0000200B5134694469646203922BF7B
:10064000A0E80C50A0E80C50B1F12001BFF4F7AFC6
:10065000090728BFA0E80C5048BF0CC05DF804EBA8
:10066000890028BF40F8042B08BF704748BF20F816
:10067000022B11F0804F18BF00F8012B7047704714
:10068000704770472DE9F0470D469946924604465B
:1006900000F124080168880604D5E06921F0100102
:1006A000216000E00120A84201DD471B00E0002797
:1006B000A1697A1902EB0900081AA0612078C00626
:1006C00002D42046FFF766FE002608E0D4E90121A7
:1006D0001AF806009047206A401C761C20624E459E
:1006E000F4DB2078C0060AD52046FFF753FE06E06B
:1006F000D4E9012130209047206A401C2062381E36
:10070000A7F10107F4DC07E0D4E9012118F805009E
:100710009047206A401C2062281EA5F10105F3DCE9
:100720002046FFF74DFE2078000602D50220BDE8E6
:10073000F0870120FBE770472DE9FF4F0C461E466E
:100740004FF0FF378BB0D2E90001DDF860800A90EE
:100750008A46C1F30A5505B93D46002108464FF0C7
:100760000000BAF1000F00F4400005DA00EB800051
:100770004FF4400101EA50004FEA9059B9F1010FDE
:1007800000DDB9460A9850EA4A000ED044F61050EF
:10079000A5F2FF3545432F14B8F1000F1ED0754266
:1007A000291E1EDDC9F100021CE0B8F1010F4FF057
:1007B000000001D0302103E0F24305E02154401C49
:1007C000B042FBDB30460022002121540B99C1F8D6
:1007D0000880C1E900200FB0BDE8F08FBD1B6D1C83
:1007E000DEE74A4600DA694206A800F067FA06AB7F
:1007F00093E8070003AB83E8070050460A9900F02E
:100800004CFB8DE80700A0F500501F3800900398BE
:10081000002D0ADD42F21F014A460844002303A9C5
:100820000390684600F0B5FD09E0A0F500504A4687
:100830001F38002303A90390684600F0BFFD8DE830
:1008400007000004000C03D04FF0FF30410800E027
:100850001046B8F1000F03D00022009215461EE0AA
:10086000751E05D400F08CF9303262556D1EF9D535
:10087000B3460122084302D000227F1C04E0207806
:10088000302801D100227F1E002A099784D01DE064
:10089000112D07DA00F074F9303262556D1C50EA00
:1008A0000102F5D1084302D00098C8B10EE0002142
:1008B000681E05E0235C625C63542254401E491CA0
:1008C0008142F7DBAB46A81B401E0990002004F8CC
:1008D0000B000B98099AC0F80880C0E9002B7AE752
:1008E00011264FF0000857E72DE9F04F88460446DF
:1008F000D21D22F0070191B0D1E90001CDE90A0132
:1009000004F0C4FA02460B98C00F01D02D2007E076
:100910002068810701D52B2002E0202101EAC000D8
:10092000032A099001D0072A05DB034641462046E9
:1009300000F084F90BE12078800601D5E06900E041
:100940000620B8F1650F814606D0B8F1660F18D0C1
:10095000B8F1670F70D131E00020B9F1110F0090AC
:1009600001DB112301E009F101030AAA01A90CA886
:10097000FFF7E2FEDDE90C70002609F10105834670
:1009800047E001204B4600904FF000470AAA01A91A
:100990000CA8FFF7D1FEDDE90DB00C995D460026ED
:1009A00010B909F101000D18B9EB050003D4C0F12D
:1009B000FF3609F10105A5EB09002BE0B9F1010FA4
:1009C00001DA4FF001090020B9F1110F00904846FB
:1009D00001DD112300E003460AAA01A90CA8FFF7D4
:1009E000ABFEDDE90C704D460026834620780007FB
:1009F0000AD4AB4500DA5D4601A8012D04DD41199A
:100A000011F8011C302907D04F4502DA17F1040F05
:100A100004DA012082460FE06D1EEEE7002F02DCB3
:100A2000ED1B3E4403E0781CA84200DD7D1CB81B92
:100A300000F1010A4FF000472078000703D4AA45CF
:100A400001DB4FF0FF3A0021B7F1004F0DF14308F1
:100A50008DF8431024D002202B23002F01DA7F428F
:100A60002D230A21021EA0F1010000DC5FB197FBDB
:100A7000F1FC97FBF1F201FB1C7C17460CF1300CEA
:100A800008F801CDEEE7A8F10100037021880905FF
:100A900001D5452100E06521A0F1010800F8011C05
:100AA00009980FA9A1EB0807FF1D00B1012041190A
:100AB00001EBEA70A1693844081A401EA061207851
:100AC000C00602D42046FFF765FC099828B1D4E996
:100AD00001219047206A401C20622078C00622D560
:100AE0002046FFF757FC1EE0002E04DBB34502DD75
:100AF00001A8805D00E03020D4E901219047206A00
:100B0000401C2062761CAAF101005FEA000A0AD1AB
:100B100000F032F8C0680168405CD4E901219047D8
:100B2000206A401C2062281EA5F10105DCDC07E0DC
:100B3000D4E9012118F8010B9047206A401C20627B
:100B4000381EA7F10107F3DC2046FFF739FC03202C
:100B500011B041E6074B70B50D467B4400F05BF8E1
:100B60000446284600F01CF910B14FF0FF3070BD6C
:100B7000204670BDA7430000004870470C040020C9
:100B800030B5B0F10A024FEA900E71F100034EEA5F
:100B9000817EB0EB0E0061EB91014FEA101E4EEA30
:100BA000017E10EB0E0041EB11114FEA102E4EEAC0
:100BB000016E10EB0E0041EB11214FEA104E4EEA90
:100BC000014E10EB0E0041EB1141401841F10001C4
:100BD0004FEAD00040EA41704FEAD10110EB8005A6
:100BE0004FEA810444EA907444EB01046D1944EB2C
:100BF0000404521BA3414FF0000348BF0A3200D542
:100C000030BD401C41F1000130BD000001694A1CAB
:100C100002610878704700B58FB0CDE9013100213D
:100C2000059105497944CDE9031011466846FFF75F
:100C300041FC0FB000BD0000E5FFFFFF2DE9F041D2
:100C40001F46044603260168072A01F4006004DBFE
:100C500008B116A505E016A503E008B115A500E04A
:100C600015A521F010002060A069C01EA0610FB181
:100C7000401EA0612046FFF78DFB4FB1D4E9012152
:100C800038469047206A401C2062C01C206206E063
:100C9000206AFAE7D4E9012115F8010B9047761E86
:100CA000F8D22046FFF78CFBBDE8F0814E414E00A4
:100CB0006E616E00494E4600696E66002DE9F04790
:100CC000814616468AB0354878440DC88DE80D0037
:100CD00032487844801C03AC0DC884E80D0041F60E
:100CE0009B300844372190FBF1F290FBF1F5A5F120
:100CF000800501FB12041B3C02D56442012000E088
:100D00000020DFF898A080460027FA44AAF1BE0A26
:100D10000EE0E0070AD03246684607EB47010123A0
:100D20000AEB810100F04AFB8DE8070064107F1C8C
:100D3000002CEED1194F7F44AE3F19E0E80715D0E3
:100D400007EB04100DF1180A90E80E008AE80E0077
:100D5000C068F04201D1981908903246012306A9D3
:100D600003A800F02BFB03AB83E807006D10641CA5
:100D7000002DE3D14FF0010332466946B8F1000F70
:100D800003A802D000F005FB01E000F017FBC9E961
:100D90000001C9F808200AB0BDE8F0874846000005
:100DA000007B00F08000704700487047EC03002093
:100DB0007546FFF7F9FFAE4605006946534620F039
:100DC0000700854618B020B5FFF74EFABDE8204071
:100DD0004FF000064FF000074FF000084FF0000BF7
:100DE00021F00701AC46ACE8C009ACE8C009ACE8AA
:100DF000C009ACE8C0098D46704710B50446AFF392
:100E000000802046BDE81040FFF71ABA4FF0013CC1
:100E100050F8042B51F8043B9A4221D1A2EB0C0369
:100E2000934313EACC1317D150F8042B51F8043B29
:100E30009A4215D1A2EB0C03934313EACC130BD1C6
:100E400050F8042B51F8043B9A4209D1A2EB0C0351
:100E5000934313EACC13DBD04FF00000704700BF80
:100E6000D01A01BAB1FA81F101F0180122FA01F0A9
:100E7000CB40C1F12001DBB2C0B2C01A2CFA01F3A1
:100E8000D11A914311EAC311E6D1704701491820E4
:100E9000ABBEFEE72600020070475FEA400C08BFC9
:100EA00091F0000F4FEA8C234FEAC12243EA5151DF
:100EB0004FEA1C5018BF00F5F0404FEA300018BF51
:100EC00041F000415FEA6C5C00F02980BCF1FF3F1B
:100ED00008BF40F080407047130C06BF12044FF06B
:100EE000100C4FF0000C130E04BF12020CF1080C92
:100EF000130F04BF12010CF1040C930F04BF9200F6
:100F00000CF1020CD30F04BF52000CF1010C11467E
:100F10004FF00002A0F11F00A0EB0C00704711F091
:100F2000004F08BF704731F000413FF4D5AF0B0CC4
:100F300006BF09044FF0100C4FF0000C0B0E04BF5D
:100F400009020CF1080C0B0F04BF09010CF1040C91
:100F50008B0F04BF89000CF1020CCB0F04BF4900BA
:100F60000CF1010CCCF12003A0EB0C0022FA03F3EE
:100F700002FA0CF241EA030100F10100704720F08F
:100F80007F4C80EA030023F07F47ACEB070303F5B7
:100F90007C5300F0004003F1FF032DE980494FEA44
:100FA000154B09B44FEA144325EA0B4E24EA0348D3
:100FB0000FF2042606EB132749083E785FEA320257
:100FC00003FB0667C7F5000707FB06F64FEA543731
:100FD0004FEAD64606F1020607FB066CCCF1005C30
:100FE0004FEA1C472CEA074C07FB06F40CFB06F5FE
:100FF00004EB15464FEA961634BF00204FF0004030
:101000004FEAD13706FB07FC4FEA1C4C0CFB0BF7F1
:10101000D21B03FB0CF761EB07010CFB0EF7B0EBE7
:10102000074072EB17420CFB08F734BFA2EB0742F4
:10103000B2EB074261EB17414FEA0C444FEA9107CC
:1010400006FB07FC4FEA1C4C0CFB0BF7B0EBC74050
:1010500072EB573203FB0CF734BFA2EBC742B2EB83
:10106000C74261EB57310CFB0EF7B0EBC70072EBD8
:1010700057720CFB08F734BFA2EBC702B2EBC702F2
:1010800061EB5771039F4FEA816141EA921104EBD2
:10109000CC044FEAD1374FEA826206FB07FC42EAF2
:1010A00090124FEA80604FEA1C4C0CFB0BF7D21BEE
:1010B00003FB0CF761EB07010CFB0EF7B0EB0740ED
:1010C00072EB17420CFB08F734BFA2EB0742B2EBFE
:1010D000074261EB17414FEA8C554FEA910704EB49
:1010E0009C2406FB07FC4FEA1C4C0CFB0BF7B0EBF7
:1010F000C74072EB573203FB0CF734BFA2EBC74279
:10110000B2EBC74261EB57310CFB0EF7B0EBC700F7
:1011100072EB57720CFB08F734BFA2EBC702B2EBBD
:10112000C70261EB577115EB4C254FEA816141EA2B
:1011300092114FEA82624FEAD13742EA901206FBDF
:1011400007FC44F100044FEA80604FEA1C4C0CFBA2
:101150000BF7D21B03FB0CF761EB07010CFB0EF73F
:10116000B0EB074072EB17420CFB08F734BFA2EB61
:101170000742B2EB074261EB174115EB1C154FEA32
:10118000813141EA92414FEA823242EA90424FEA8B
:1011900080304FEA0C7644F1000448EA03434EEAFB
:1011A0000B484FF0000EB2EB080C71EB030724BFA5
:1011B000624639464EEB0E0E4FF0000B00185241BE
:1011C00049414BEB0B0BB2EB080C71EB03077BF1C6
:1011D000000B24BF624639464EEB0E0E4FF0000B5B
:1011E0000018524149414BEB0B0BB2EB080C71EB71
:1011F00003077BF1000B24BF624639464EEB0E0E0F
:1012000051EA020718BF46F0010616EB0E7655F1BB
:10121000000254F1000103D5BDE88901BDE8008852
:10122000BDE88901BDE80048B619524141EB010112
:10123000A3F10103704780807F7E7D7C7B7A797883
:10124000777676757473727171706F6E6E6D6C6C8B
:101250006B6A6A696868676666656464636362612D
:101260006160605F5F5E5E5D5D5C5C5B5B5A5A59AE
:10127000595858575756565555555454535352521A
:101280005251515050504F4F4F4E4E4D4D4D4C4C72
:101290004C4B4B4B4A4A4A494949484848474747BB
:1012A00047464646454545444444444343434342F8
:1012B000424242414141002B9C4630D477002BD022
:1012C0001CB54FEA370703B44FF010004FF0100180
:1012D000BAF1000F06D0BCF1000FDCBF40F00800EF
:1012E00040F008014FF000000FBCBDE810400BF1CA
:1012F000010BBBF1010F08BF5FEA170722BF12F114
:10130000010211F101014FF0004143F1000300F02F
:10131000004043EA00007047F9D35708D0E746EA97
:10132000064613F1400F4FEA16461FDD13F1200F5A
:10133000DFBF16430A46002120335B42BED0C3F113
:10134000200746EA064602FA07F74FEA164646EA3B
:101350000706C3F1200722FA03F201FA07F721FA80
:1013600003F14FF0000342EA0702A7E746EA02064C
:1013700046EA06464FEA164646EA0106BCBF46EA7A
:101380000646360C4FF000034FF000024FF000010C
:1013900094E72DE9804C9A46934670B491E8380062
:1013A00007C831EA400C48BF34EA430C03D5FFF7C5
:1013B000E6FDFFF780FFF0BCBDE8008C2DE9804C16
:1013C0009A46934670B491E8380007C810F0804FF1
:1013D00008BF13F0804F03D100F005F8FFF76BFF53
:1013E000F0BCBDE8008C20F07F4780EA030023F0CA
:1013F0007F4C07EB0C03A3F57C5300F00040A3F1F6
:10140000FE0392F0000F00F0B38095F0000F00F0A3
:1014100077802DE901494FEA11404FEA144621EA4D
:10142000004800FB06FC24EA064708FB06F607FB1B
:1014300008F800FB07F718EB06484CEB164C4FEA90
:10144000124B18EB07484FEA15464CEB174022EABF
:101450000B4E0BFB06FC25EA06470EFB06F607FBC8
:101460000EFE0BFB07F71EEB064E4CEB164C4FF037
:1014700000061EEB074E4CEB174B18EB0B0840F128
:10148000000018EB0E0B58EB000840F100008F1A1B
:101490004FF000013CBFC943661B14BFB5EB040C01
:1014A00000213CBFC943F61B4FEA17444EEA8E0E9B
:1014B00027EA04454FEA1C4704FB07622CEA074C65
:1014C00005FB07F70CFB05F604FB0CFC16EB0746C7
:1014D00042EB174216EB0C4642EB1C421BEB060696
:1014E00058EB0202414146EA9E0601D5BDE801895A
:1014F000B619524141EB0101A3F10103BDE8018995
:101500004FEA14454FEA114724EA054621EA074C01
:1015100005FB07F406FB07F70CFB06F105FB0CFCCB
:1015200011EB074144EB17444FEA124711EB0C4112
:1015300044EB1C4422EA074C05FB07F206FB07F7C5
:101540000CFB06F605FB0CFC16EB074642EB1742BC
:1015500016EB0C4642EB1C456A1854F1000148BFDB
:101560007047B619524141EB0101A3F101037047E5
:1015700095F0000F37D04FEA11424FEA144721EAA5
:10158000024624EA074C02FB07F106FB07F70CFBB7
:1015900006F402FB0CFC14EB074441EB17414FEA45
:1015A000154714EB0C4441EB1C4125EA074C02FBA8
:1015B00007F506FB07F70CFB06F602FB0CFC16EB27
:1015C000074645EB174516EB0C4645EB1C42121936
:1015D00051F1000148BF7047B619524141EB01017A
:1015E000A3F1010370474FEA14454FEA114724EA7B
:1015F000054621EA074C05FB07F106FB07F70CFB44
:1016000006F24FF0000605FB0CFC12EB074241EB23
:10161000174112EB0C4251EB1C4148BF7047921826
:1016200041EB0101A3F10103704700002DE9FC41EA
:1016300004460025002600276946204600F00AFAE5
:10164000064616B10020BDE8FC819DF80100471C4C
:10165000022F02D00A48FEF791FE9DF803009DF884
:10166000021040EA0120A0809DF80400792804D1EE
:10167000A18804A0FEF782FE01252846E3E70000CA
:101680002C5300085B424C5F636F6D6D616E645F4D
:1016900067657444657669636549445D2050726F7F
:1016A00064756374204964203A20307825780A00F4
:1016B00070B58EB00446002500260AA9204600F029
:1016C00031FA064616B100200EB070BD9DF82A0012
:1016D00020709DF82B00A0719DF82C10E1719DF8F1
:1016E0002D1021729DF82E1061729DF82F10A1729D
:1016F0009DF83010E1729DF8311021739DF8321081
:1017000061739DF83310A1739DF83410E1739DF857
:10171000351021749DF83600792818D1207CE17BA2
:10172000A27B637BCDE90532CDE90710207BE17A0E
:10173000A27A637ACDE90132CDE90310207A0090D4
:10174000E379A27921780348FEF718FE012528469F
:10175000BAE70000B45300087CB504460025002613
:101760006946204600F0A8F906460EB100207CBD6F
:101770009DF8010060709DF80200A0709DF80300C4
:10178000E0709DF80400792806D1E378A2786178AA
:101790000248FEF7F3FD01252846E8E79C540008BF
:1017A000704700002DED028B84B00746DFF814B1BE
:1017B00041F23C1003904FF00069039809EB000AD6
:1017C0004FF000084C460025AAEB090086B2012024
:1017D0003D490870387B00F09BF802203A490870B8
:1017E00045E05946384600F0BDFAAAEB04000290E5
:1017F0000298B0F5807F01D2029801E04FF480702A
:101800001FFA80F8701B404501D2701B00E0404673
:101810001FFA80F84FF4807307F112022146384610
:1018200000F028FC4FF4807207F11201204600F00E
:10183000A5FB44444544C34400EE106AB8EE400A98
:101840009FED221AC1EE000A00EE105AB8EE400ACF
:1018500020EE800A8DED010A019803F077FC41EC3F
:10186000180B53EC182B214619A0FEF787FD5445A1
:1018700001D2B542B5D300221021234801F0A2F8CD
:1018800000222021204801F09DF8642000F084FF10
:10189000012220211C4801F095F84FF00061212021
:1018A00000F06EF91948FEF769FD0AE001225103C4
:1018B000154801F087F800224FF48041124801F0EA
:1018C00081F8F3E700000108040000200000C8428E
:1018D0000D5B424C5F636F6D6D616E645F70726F24
:1018E000636573735D2057726F7465206164647201
:1018F000657373203078253038782028252E32669D
:10190000252529200000000000080240705300082F
:101910007FB505460024002003908DF80850BB20B9
:101920008DF8090018A0FEF729FD9DF80C00012391
:1019300003AA0221009002A800F0E2FA044614B1C2
:10194000204604B070BD1BA0FEF718FDFF208DF8E7
:1019500004008DF8050000208DF806009DF80C00AD
:10196000012303AA0321009001A800F0C9FA04464C
:1019700024B11DA0FEF702FD2046E2E727A0FEF7F6
:10198000FDFC0020DDE700005B424C5F6572617387
:10199000654D656D6F72795F636F6D6D616E645DCE
:1019A000204572617365206D656D6F7279202E2EF2
:1019B0002E2E0A005B424C5F65726173654D656D4A
:1019C0006F72795F636F6D6D616E645D20457261EA
:1019D0007365206D656D6F72792072756E6E696EBC
:1019E00067202E2E2E2E0A005B424C5F65726173BB
:1019F000654D656D6F72795F636F6D6D616E645D6E
:101A0000204572617365206D656D6F727920666126
:101A1000696C202E2E2E2E0A000000005B424C5FC7
:101A200065726173654D656D6F72795F636F6D6D22
:101A3000616E645D204572617365206D656D6F72C6
:101A400079207375636365737366756C6C202E2ED5
:101A50002E2E0A007CB506460C460025002001907B
:101A6000307A8DF80400FD208DF8050020780523DC
:101A700022460221009001A800F042FA05462DB14D
:101A8000294603A0FEF77AFC28467CBD0020FCE72F
:101A90005B424C5F67657444657669636549445F82
:101AA000636F6D6D616E645D205B4552524F525D98
:101AB0002025640A000000007CB506460C4600257F
:101AC00000200190F0798DF80400FE208DF80500CB
:101AD0002078052322460221009001A800F010FA88
:101AE00005462DB1294603A0FEF748FC28467CBDDB
:101AF0000020FCE75B424C5F676574566572736952
:101B00006F6E416E6452505374617475735F636F8E
:101B10006D6D616E645D205B4552524F525D2025B4
:101B2000640A00007CB506460C46002500200190A2
:101B30008DF80400FF208DF8050020780F23224641
:101B40000221009001A800F0DBF905462DB12946DD
:101B500003A0FEF713FC28467CBD0020FCE7000034
:101B60005B424C5F6765745F636F6D6D616E645D52
:101B7000205B4552524F525D2025640A0000000050
:101B800070B586B006460C460025002005908DF8FD
:101B90001060DE208DF8110020A0FEF7EFFB9DF80D
:101BA0001400012305AA0221009004A800F0A8F95E
:101BB000054615B1284606B070BD24A0FEF7DEFB31
:101BC000200E8DF80800200C8DF80900200A8DF8F1
:101BD0000A00E0B28DF80B009DF808009DF809108E
:101BE00048409DF80A1048409DF80B1048408DF879
:101BF0000C009DF81400012305AA0521009002A8FD
:101C000000F07EF9054625B11FA0FEF7B7FB284678
:101C1000D1E72DA0FEF7B2FB0020CCE75B424C5F82
:101C200065726173654D656D6F72795F636F6D6D20
:101C3000616E645D2073656E6420676F20636F6DF5
:101C40006D616E64202E2E2E2E0A00005B424C5FCA
:101C500065726173654D656D6F72795F636F6D6DF0
:101C6000616E645D2073656E642061646472657387
:101C70007320616E6420636865636B73756D202EDD
:101C80002E2E2E0A000000005B424C5F65726173CD
:101C9000654D656D6F72795F636F6D6D616E645DCB
:101CA0002073656E64206164647265737320616E75
:101CB0006420636865636B73756D206661696C2071
:101CC0002E2E2E2E0A0000005B424C5F657261735F
:101CD000654D656D6F72795F636F6D6D616E645D8B
:101CE00020676F206164647265737320737563632A
:101CF00065737366756C6C202E2E2E2E0A00000004
:101D000010B5044600F064FE12490968401A1249F1
:101D10000968884202D80F48006840B900F058FEB0
:101D20000C4908604FF400510C4800F041FE0C488B
:101D3000007820B1012803D0022809D104E007E08F
:101D400064200549086003E000200349086000BFE3
:101D500000BF10BD080000200C0000200008024059
:101D60000400002070B504460D4600264FF4807133
:101D700004F11200FEF73AFC002007E02E6804F19F
:101D8000120101440E602D1D011D88B2FF28F5DDF2
:101D900070BD0000F0B587B004460E46154600271A
:101DA0000020069011208DF81400EE208DF815000B
:101DB00015B9002007B0F0BDB5F5807F04DD2AA07D
:101DC000FEF7DCFA0120F5E734A0FEF7D7FA9DF81C
:101DD0001800012306AA0221009005A800F090F83F
:101DE00007460FB10320E5E7200E8DF80C00200C0C
:101DF0008DF80D00200A8DF80E00E0B28DF80F006E
:101E00009DF80C009DF80D1048409DF80E104840BC
:101E10009DF80F1048408DF8100021462AA0FEF7CB
:101E2000ADFA9DF81800012306AA0521009003A829
:101E300000F066F807460FB10320BBE7681EC0B28A
:101E40008DF808009DF8080080F0FF008DF809006B
:101E500030782B4632460221009002A800F050F85C
:101E600007460020A6E700004572726F723A2052C2
:101E7000454144206C656E677468206C696D6974B7
:101E80002061742053544D33325F4D41585F4652A8
:101E9000414D452062797465730A00005B424C5FD6
:101EA000726561644D656D6F72795F636F6D6D61B1
:101EB0006E645D2052656164206D656D6F7279207E
:101EC0002E2E2E2E0A0000005B424C5F726561646C
:101ED0004D656D6F72795F636F6D6D616E645D20CE
:101EE00052656164206D656D6F72792066726F6DE9
:101EF000206164647265737320307825780A00006D
:101F00002DE9F04706460F4614461D46DDF82080B1
:101F10004FF000093946304603F0DCF881460A4AA2
:101F20002946204603F0B8F88146B9F1000F08D1E0
:101F3000B8F11F0F05D105A0FEF720FA0220BDE879
:101F4000F0870020FBE70000011D00085B424C5FAA
:101F500073656E64436F6D6D616E645D205B4552A9
:101F6000524F525D20436F6D6D616E64206E6F74D1
:101F700020666F756E6420210A0000002DE9F0478D
:101F8000C0B00646884617460025A946AA463146EF
:101F90001FA0FEF7F3F91BE0781B1FFA80F9B9F1D7
:101FA000FF0F01DC484601E04FF4807081460DEBE5
:101FB000050170194A46FFF7EDFE8246BAF1000F9F
:101FC00003D0012040B0BDE8F08705EB090085B2E1
:101FD000BD42E1DB002412E018F80410601C1DF87B
:101FE0000000814209D01DF8043018F8042031198E
:101FF0001348FEF7C3F90120E4E7601CC4B2B81E21
:10200000A042E9DC0FA0FEF7B9F90020DAE70000F2
:102010005B424C5F7665726966794D656D6F72796A
:102020005D20566572696679206D656D6F727920E5
:102030006164647265737320307825780A0000004B
:10204000545400085B424C5F7665726966794D6551
:102050006D6F72795D20566572696679206D656D68
:102060006F7279207375636365737366756C6C0A40
:10207000000000002DE9FF4FC7B00D4691461E46F7
:102080004FF00008002046904590439044908246CF
:102090004FF4827102A8FEF7CBFA4798C07A8DF808
:1020A0001401CE208DF815011EB900204BB0BDE8FB
:1020B000F08FB6F5807F01DD0120F7E705F0300BEA
:1020C000BBF1000F01D00320F0E79DF818010123B8
:1020D00046AA0221009045A8FFF712FF8046B8F1FA
:1020E000000F01D04046E1E7280E8DF80C01280CC6
:1020F0008DF80D01280A8DF80E01E8B28DF80F0158
:102100009DF80C019DF80D1148409DF80E114840B6
:102110009DF80F1148408DF810019DF8180101231A
:1021200046AA0521009043A8FFF7EAFE8046B8F1D1
:10213000000F01D04046B9E7F01C20F0030087B241
:10214000781E00F0FF0AC0B28DF80800002409E0F4
:1021500019F8040080EA0A0A19F8041002AA601C9F
:10216000115484B2B442F3DB344606E08AF0FF0A2D
:10217000FF2102AA601C115484B2BC42F6DB02A902
:10218000781C01F800A09DF818010090B81C81B2DD
:10219000012346AA02A8FFF7B3FE8046B8F1000F5C
:1021A00001D0404682E7002080E700BFFEE7000044
:1021B00010B5024800F010F910BD000078020020B0
:1021C00010B5024800F008F910BD00001802002008
:1021D00010B5024800F000F910BD0000B801002061
:1021E00010B5024800F0F8F810BD000058010020BA
:1021F0000146087810381823B0FBF3F20848805CD9
:10220000C865032A05D908686FF30900001D8865B1
:1022100003E008686FF309008865886D7047000067
:102220003C520008014600208A6A8B69CBB932B162
:10223000012A0DD0022A03D0032A10D10EE000BFDC
:10224000CB6A03F08073B3F1807F00D1012007E0F7
:10225000CB6AB3F1C07F00D1012001E000E000BFF4
:1022600034E08B69B3F5005F1AD132B1012A07D08F
:10227000022A03D0032A11D10AE000BF01200EE098
:10228000CB6A03F08073B3F1807F00D1012006E0B8
:10229000CB6AB3F1C07F00D1012000E000BF15E0A0
:1022A00032B1012A05D0022A04D0032A0CD103E05E
:1022B00000BF00BF012008E0CB6A03F08073B3F1D8
:1022C000807F00D1012000E000BF00BF704730B523
:1022D0000468246824F4802405682C600468636022
:1022E0008468402C04D10468A2600468E16003E0C3
:1022F0000468A1600468E26030BD704772B600BF38
:10230000FEE770B50446A56D00F062FB064694F842
:102310003500022808D08020606500BF002084F8C6
:10232000340000BF012070BD2068006820F0160056
:10233000216808602068406920F0800021684861B9
:10234000206C08B9A06C28B12068006820F0080053
:10235000216808602068006820F00100216808609A
:1023600010E000F035FB801B05280BD920206065AC
:10237000032084F8350000BF002084F8340000BF3B
:102380000320D0E72068006800F001000028E8D1B1
:1023900094F85C103F208840A860012084F8350044
:1023A00000BF002084F8340000BF00BFBBE7014637
:1023B00091F83500022803D080204865012070473D
:1023C000052081F835000868006820F001000A68DF
:1023D00010600020F3E70000F8B5044600200090EC
:1023E0008C4800684FF41651B0FBF1F7A56D2E68CC
:1023F00094F85C1008208840304098B1206800684C
:1024000000F0040070B12068006820F0040021682A
:10241000086094F85C1008208840A860606D40F067
:102420000100606594F85C1001208840304068B17C
:102430002068406900F0800040B194F85C100120F1
:102440008840A860606D40F00200606594F85C1000
:1024500004208840304068B12068006800F0020025
:1024600040B194F85C1004208840A860606D40F092
:102470000400606594F85C1010208840304078B308
:102480002068006800F0080050B394F85C10102039
:102490008840A8602068006800F4802080B120682F
:1024A000006800F4002028B9206CC8B12046216CD7
:1024B000884715E0A06C98B12046A16C88470FE0D2
:1024C0002068006800F4807028B92068006820F057
:1024D000080021680860206C10B12046216C8847F4
:1024E00094F85C10202088403040002865D0206897
:1024F000006800F0100000285FD094F85C102020E5
:102500008840A86094F83500052828D12068006824
:1025100020F01600216808602068406920F08000E3
:1025200021684861206C08B9A06C28B12068006857
:1025300020F008002168086094F85C103F20884073
:10254000A860012084F8350000BF002084F8340022
:1025500000BF206D10B12046216D8847F8BD20686E
:10256000006800F4802080B12068006800F400203A
:1025700028B9606C10B12046616C88471DE0E06BA3
:10258000D8B12046E16B884717E02068006800F466
:10259000807068B92068006820F010002168086029
:1025A000012084F8350000BF002084F8340000BF0B
:1025B000E06B10B12046E16B8847606D38B3606D09
:1025C00000F00100F0B1052084F8350020680068B3
:1025D00020F001002168086000BF0098401C0090B6
:1025E000B84200D905E02068006800F0010000282A
:1025F000F3D100BF012084F8350000BF002084F82B
:10260000340000BFE06C10B12046E16C884700BF89
:10261000A4E700003C0000202DE9F041044600251D
:1026200000F0D6F9074614B90120BDE8F081606AD0
:1026300000B100BF022084F8350000BF002084F8FC
:10264000340000BF2068006820F0010021680860A5
:102650000AE000F0BDF9C01B052805D920206065FF
:10266000032084F83500E0E72068006800F00100EE
:102670000028EED12068056821480540D4E9010111
:102680000843E16808432169084361690843A16977
:102690000843E1690843216A08430543606A042846
:1026A00003D1D4E90B010843054320680560206885
:1026B000456925F00705606A0543606A04280DD165
:1026C000A06A0543E06A48B12046FFF7ABFD28B198
:1026D00040206065012084F83500A6E72068456148
:1026E0002046FFF785FD064694F85C103F208840A1
:1026F000B06000206065012084F83500002094E778
:102700003F8010F02DE9F04704460D4616461F465F
:102710004FF00008D4F8589000BF94F83400012816
:1027200002D10220BDE8F087012084F8340000BF08
:1027300094F83500012825D1022084F835000020C6
:1027400060653B46324629462046FFF7C0FD94F8B7
:102750005C103F208840C9F808002068006840F0FD
:10276000160021680860206C28B12068006840F0DD
:102770000800216808602068006840F001002168B6
:10278000086006E000BF002084F8340000BF4FF06E
:1027900002084046C6E7000070B5044600F018F98C
:1027A00006462546681C10B104480078054400BF61
:1027B00000F00EF9801BA842FAD370BD380000204B
:1027C000F8B502460B460025002400200021D5E084
:1027D000012606FA01F51E6806EA0504AC4274D12A
:1027E0001E7906F00306012E04D01E7906F00306BA
:1027F000022E13D190684F000326BE40B0434F0015
:10280000DE68BE4030439060506801268E40B04381
:102810001E79C6F300168E40304350601E7906F0D4
:102820000306032E09D0D0684F000326BE40B043F4
:102830004F009E68BE403043D0601E7906F003060C
:10284000022E13D1CF0802F1200656F827004E07BA
:10285000F70E0F26BE40B0434F07FF0E1E69BE4065
:102860003043CF0802F1200646F8270010684F00D9
:102870000326BE40B0431E7906F003064F00BE405B
:10288000304310605E6806F44036002E75D000BFFD
:10289000002600963B4E366846F48046394F3E602F
:1028A0003E46366806F48046009600BF00BF364EAE
:1028B0008F0856F827008E07370F0F26BE40B0430B
:1028C000324EB24202D1002624E056E0304EB242EF
:1028D00001D101261EE02F4EB24201D1022619E09D
:1028E0002D4EB24201D1032614E02C4EB24201D14A
:1028F00004260FE02A4EB24201D105260AE0294EF5
:10290000B24201D1062605E0274EB24201D1072688
:1029100000E008268F073F0FBE4030431A4E8F0855
:1029200046F82700214E3068A0435E6806F48036E2
:1029300006B120431D4E3060361D3068A0435E68EE
:1029400006F4003606B12043184E361D3060361DA1
:102950003068A0435E6806F4801606B12043134E2B
:1029600008363060361D3068A0435E6806F40016F5
:1029700006B120430D4E0C363060491C1029FFF47F
:1029800027AFF8BD4438024008380140000002403B
:102990000004024000080240000C02400010024007
:1029A0000014024000180240001C0240003C01409C
:1029B00010B5426921EA020302EA010443EA044332
:1029C000836110BD0AB1816101E00B04836170472E
:1029D000014800687047000030000020034800688C
:1029E0000349097808440149086070473000002015
:1029F0003800002010B50D48006840F400700B4905
:102A000008600846006840F4806008600846006876
:102A100040F480700860032000F0A2F80F2000F05E
:102A200007F800F02BF8002010BD0000003C024029
:102A300070B504460E4800784FF47A71B1FBF0F09F
:102A40000C490968B1FBF0F5284600F02BFC08B1F1
:102A5000012070BD102C07D200222146501E00F02C
:102A600041F80548046001E00120F2E70020F0E7AA
:102A7000380000203C0000203400002008B500BFD2
:102A8000002000900E48006840F480400C49086027
:102A90000846006800F48040009000BF00BF00BFFF
:102AA00000200090081F006840F08050091F086057
:102AB0000846006800F08050009000BF00BF08BDCD
:102AC0004438024001460846002809DB00F01F0395
:102AD00001229A4043099B0003F1E023C3F800213F
:102AE00000BF70472DE9F05F80460D46164600276F
:102AF00002F0E4F9074639462A46334601F007005A
:102B0000C0F1070ABAF1040F02D94FF0040A01E03C
:102B1000C0F1070AD14600F1040ABAF1070F02D248
:102B20004FF0000A01E0A0F1030AD4464FF0010A79
:102B30000AFA09FAAAF1010A0AEA020A0AFA0CFADE
:102B40004FF0010B0BFA0CFBABF1010B0BEA030B83
:102B50004AEA0B042146404602F0B8F9BDE8F09F6E
:102B600000BF00F00702064B19684FF6FF0319403B
:102B7000044B0B4343EA0221014B196000BF70472D
:102B80000CED00E00000FA0570B504460D460CB9E6
:102B9000012070BD5848006800F00700A84209D223
:102BA00055490D700846006800F00700A84201D0A2
:102BB0000120EEE7207800F0020002281DD12078E5
:102BC00000F00400042805D14C48006840F4E050AF
:102BD0004A490860207800F00800082805D14748D5
:102BE000006840F46040454908604448006820F0AF
:102BF000F000A168084341490860207800F0010016
:102C0000A8B36068012807D13C4808380068C0F3C1
:102C10004040B8B90120BCE76068022802D0606873
:102C2000032807D1354808380068C0F3406048B928
:102C30000120AEE7314808380068C0F3400008B909
:102C40000120A6E72D48006820F0030061680843D2
:102C50002A490860FFF7BCFE064609E0FFF7B8FE08
:102C6000801B41F28831884202D9032091E707E0B6
:102C70002248006800F00C006168B0EB810FEDD1D4
:102C80001D48006800F00700A84209D91A490D70D4
:102C90000846006800F00700A84201D0012078E74C
:102CA000207800F00400042807D11448006820F4BC
:102CB000E050E168084311490860207800F00800FE
:102CC000082808D10D48006820F46040216940EAD6
:102CD000C1000A49086000F03FF808490968C1F3DB
:102CE0000311074A515CC84006490860064800685D
:102CF000FFF79EFE00204CE7003C024008380240EF
:102D0000445200083C0000203400002001480068C4
:102D1000704700003C00002000B5FFF7F7FF0449B2
:102D20000968C1F38221034A515CC84000BD00001C
:102D3000083802405452000800B5FFF7E7FF044985
:102D40000968C1F34231034A515CC84000BD00002C
:102D500008380240545200082DE9F04700240025AD
:102D60000026A1462548006800F00C0020B1042888
:102D700005D008283AD105E0DFF8849039E0DFF883
:102D8000849036E01D48001F006800F03F041B4897
:102D9000001F006800F4800078B11A481749091F25
:102DA0000968C1F38811A0FB017001462246002387
:102DB0003846FDF76BFA05460EE011480F49091F2A
:102DC0000968C1F38811A0FB017001462246002367
:102DD0003846FDF75BFA05460848001F0068C0F357
:102DE0000140401C4600B5FBF6F902E0DFF8109008
:102DF00000BF00BF4846BDE8F08700000838024029
:102E00000024F40000127A00F8B504460CB9012041
:102E1000F8BD207800F00100002874D0F94800685F
:102E200000F00C0004280DD0F648006800F00C00FB
:102E3000082813D1F348001F006800F48000B0F5A3
:102E4000800F0BD1EF4808380068C0F340400028DD
:102E500059D06068002856D10120D9E700BF6068CA
:102E6000B0F5803F08D1E7480838006840F480306A
:102E7000E449083908601EE06068B0F5A02F0DD164
:102E8000E0480838006840F48020DE4908390860CE
:102E90000846006840F4803008600CE0D9480838E3
:102EA000006820F48030D749083908600846006877
:102EB00020F48020086000BF606890B1FFF788FDB3
:102EC000054606E0FFF784FD401B642801D9032076
:102ED0009EE7CC4808380068C0F340400028F1D095
:102EE00011E0FFF775FD054606E0FFF771FD401B99
:102EF000642801D903208BE7C24808380068C0F372
:102F000040400028F1D1207800F0020002285FD173
:102F1000BC48006800F00C0058B1BA48006800F0E6
:102F20000C0008281CD1B748001F006800F480007E
:102F3000B0B9B44808380068C0F3400020B1E06878
:102F4000012801D0012063E7AE480838006820F06E
:102F5000F800216940EAC100AA490839086037E051
:102F6000E06800B30120A8490860FFF731FD05467D
:102F700006E0FFF72DFD401B022801D9032047E79B
:102F8000A04808380068C0F340000028F1D09D48F0
:102F90000838006820F0F800216940EAC10099492A
:102FA0000839086014E0002097490860FFF710FD19
:102FB000054606E0FFF70CFD401B022801D903205F
:102FC00026E7904808380068C0F340000028F1D197
:102FD000207800F0080008282CD16069A8B10120F1
:102FE0008A490860FFF7F4FC054606E0FFF7F0FCAD
:102FF000401B022801D903200AE782486C30006890
:10300000C0F340000028F1D014E000207F490860A0
:10301000FFF7DEFC054606E0FFF7DAFC401B02285E
:1030200001D90320F4E677486C300068C0F3400013
:103030000028F1D1207800F00400042870D1002786
:1030400070483830006800F0805090B900BF002010
:1030500000906C483830006840F080506949383141
:1030600008600846006800F08050009000BF00BF74
:1030700001276748006800F48070B0B964480068B0
:1030800040F4807062490860FFF7A2FC054606E044
:10309000FFF79EFC401B022801D90320B8E65C48DC
:1030A000006800F480700028F2D000BFA0680128FA
:1030B00008D154486830006840F001005149683137
:1030C00008601DE0A06805280DD14E4868300068F2
:1030D00040F004004B49683108600846006840F041
:1030E000010008600CE047486830006820F00100EB
:1030F0004449683108600846006820F00400086010
:1031000000BFA068A8B1FFF763FC054609E0FFF720
:103110005FFC401B41F28831884202D9032077E6E8
:1031200026E0384868300068C0F340000028EED040
:1031300013E0FFF74DFC054608E0FFF749FC401B94
:1031400041F28831884201D9032061E62D48683078
:103150000068C0F340000028EFD1012F07D12948B3
:103160003830006820F0805026493831086000BFB0
:10317000A069002845D02348006800F00C0008280A
:103180005DD0A069022845D100201F490866FFF7DD
:103190001FFC054606E0FFF71BFC401B022801D977
:1031A000032035E6174808380068C0F3406000285F
:1031B000F1D1D4E907010843616A40EA8111012293
:1031C000A06AC2EB500041EA00412C20005D41EAB8
:1031D00000600C49091F086001200B490866FFF7D1
:1031E000F7FB054606E0FFF7F3FB401B022801D979
:1031F00003200DE6034808380068C0F3406000284B
:10320000F1D049E00838024000004742800E4742B2
:1032100000700040002021490866FFF7D9FB0546F1
:1032200006E0FFF7D5FB401B022801D90320EFE59C
:103230001B480068C0F340600028F2D12CE0A06970
:10324000012800D1E4E51648001D0668A0690128A0
:1032500020D006F48001E06981421BD106F03F01D5
:10326000206A814216D147F6C0703040616AB0EBE7
:10327000811F0FD106F440310122A06AC2EB500039
:10328000B1EB004F06D106F070612C20005DB1EB70
:10329000006F01D00120BBE50020B9E500004742E6
:1032A0000038024070B504462546681EB0F1807FA4
:1032B00001D301200FE0681E4FF0E02148610F218B
:1032C0004FF0FF3001F002FE00204FF0E021886156
:1032D00007200861002070BD7047704730B5024676
:1032E0000B4600BF92F83C00012801D1022030BDFE
:1032F000012082F83C0000BF022082F83D001068E7
:1033000044681068816824F07004186804431068E9
:103310004460184D1068A8421BD01068B0F1804F6F
:1033200017D0154D1068A84213D0144D1068A8424C
:103330000FD0134D1068A8420BD0124D1068A84250
:1033400007D0114D1068A84203D0104D1068A84254
:1033500005D121F080015868014310688160012087
:1033600082F83D0000BF002082F83C0000BF00BF93
:10337000BDE70000000001400004004000080040DC
:10338000000C0040000401400040014000180040D3
:1033900010B504460CB9012010BD94F83D0028B9C1
:1033A000002084F83C00204600F026F8022084F833
:1033B0003D00211D206801F077F8012084F84600C7
:1033C00000BF84F83E0001213F20015540200155F7
:1033D0004120015500BF00BF012084F84200432076
:1033E0000155442001554520015500BF012084F8B6
:1033F0003D000020D0E7000010B586B0044614213F
:1034000001A8FDF715F92068B0F1804F0FD100BF7A
:10341000002000902448006840F001002249086024
:103420000846006800F00100009000BF3AE01F4924
:103430002068884236D100BF002000901A480068FA
:1034400040F00800184908600846006800F00800CD
:10345000009000BF00BF00BF00200090124810384D
:10346000006840F001001049103908600846006803
:1034700000F00100009000BF00BF01200190022079
:1034800002900020039004900220059001A90848B2
:10349000FFF796F9002211463220FFF723FB322076
:1034A000FFF710FB06B010BD40380240000C004092
:1034B000000002402DE9F04104460D46002700BF00
:1034C00094F83C00012802D10220BDE8F0810120DF
:1034D00084F83C0000BF022084F83D002068866824
:1034E00026F0770626F47F462068866028685028F4
:1034F00033D00CDC202850D004DC00284BD010281E
:1035000051D149E0302849D040284CD139E06028D9
:103510002DD0702807D0B0F5805F03D0B0F5005FE4
:1035200041D10DE041E0D5E902136A68206801F05D
:1035300027F82068866846F077062068866034E0C1
:10354000D5E902136A68206801F01AF820688068DB
:1035500040F480402168886027E0EA686968206854
:1035600001F022F85021206801F015F81DE0EA680A
:103570006968206801F074F86021206801F00BF898
:1035800013E0EA686968206801F00EF840212068BD
:1035900001F001F809E000BF00BF00BF2968206802
:1035A00000F0F9FF01E0012700BF00BF012084F80F
:1035B0003D0000BF002084F83C0000BF384684E78F
:1035C0002DE9F0412DED028B0646307F012831D1E7
:1035D00000240025002008EE100A002737B900213A
:1035E000304600F0A2F90446012722E000213046CF
:1035F00000F09BF90546A54203D9281B08EE100AE6
:1036000006E0AC4204D9C4F1FF30284408EE100AA9
:10361000DFED0A8AB8EE480AC8EE800A0848C0ED15
:10362000000A00203168486200270120054908701F
:1036300000BF00BFBDEC028BBDE8F08100247449DF
:10364000280000202C0000202DE9F04104460D4602
:103650001646002700BF94F83C00012802D1022042
:10366000BDE8F081012084F83C0000BF96B9EB680A
:10367000D5E90012206800F0ABFF2068806920F0D7
:103680000C002168886120688069A9680843216866
:10369000886141E0042E13D1EB68D5E9001220685F
:1036A00000F0F2FF2068806920F4406021688861A2
:1036B00020688069A96840EA0120216888612BE0C0
:1036C000082E12D1EB68D5E90012206800F0F9FF4E
:1036D0002068C06920F00C002168C8612068C069BA
:1036E000A96808432168C86116E00C2E13D1EB6865
:1036F000D5E90012206801F000F82068C06920F4C4
:1037000040602168C8612068C069A96840EA01205A
:103710002168C86100E0012700BF002084F83C0058
:1037200000BF38469CE710B504460CB9012010BD17
:1037300094F83D0028B9002084F83C00204600F0B1
:1037400025F8022084F83D00211D206800F0ACFE21
:10375000012084F8460000BF84F83E0001213F208C
:103760000155402001554120015500BF00BF0120F7
:1037700084F842004320015544200155452001555D
:1037800000BF012084F83D000020D0E7704710B54D
:10379000044620680069C0F34000D8B12068C068C2
:1037A000C0F34000B0B16FF0020021680861012051
:1037B00020772068806900F0030018B12046FFF7E9
:1037C000FFFE05E0204600F0ADF8204600F0ABF823
:1037D0000020207720680069C0F38000D8B12068FD
:1037E000C068C0F38000B0B16FF0040021680861C8
:1037F000022020772068806900F4407018B12046CC
:10380000FFF7DEFE05E0204600F08CF8204600F0D1
:103810008AF80020207720680069C0F3C000D8B182
:103820002068C068C0F3C000B0B16FF00800216824
:103830000861042020772068C06900F0030018B1F7
:103840002046FFF7BDFE05E0204600F06BF820465D
:1038500000F069F80020207720680069C0F30010AC
:10386000D8B12068C068C0F30010B0B16FF010008C
:1038700021680861082020772068C06900F4407042
:1038800018B12046FFF79CFE05E0204600F04AF8FC
:10389000204600F048F8002020772068006900F0FA
:1038A000010058B12068C06800F0010030B16FF02D
:1038B000010021680861204600F036F820680069A0
:1038C000C0F3C01058B12068C068C0F3C01030B158
:1038D0006FF08000216808612046FFF7FDFC20683A
:1038E0000069C0F3801058B12068C068C0F3801030
:1038F00030B16FF0400021680861204600F02EF8DA
:1039000020680069C0F3401058B12068C068C0F357
:10391000401030B16FF02000216808612046FFF7A9
:10392000DCFC10BD7047704770470246002031B183
:10393000042907D0082908D00C290CD108E0136805
:10394000586B09E01368986B06E01368D86B03E0C6
:103950001368186C00E000BF00BF704770477047E5
:10396000704700002DE9F84F04462068056820687C
:10397000C668206847694FF00009CA4605F00F097C
:10398000B9F1000F0AD105F0200038B106F020008F
:1039900020B1204600F0F5FFBDE8F88FB9F1000F27
:1039A0007CD007F0010018B906F49070002875D09B
:1039B00005F0010030B106F4807018B1206C40F0C1
:1039C0000100206405F0040030B107F0010018B1D7
:1039D000206C40F00200206405F0020030B107F0D6
:1039E000010018B1206C40F00400206405F00800CC
:1039F00048B106F0200010B907F0010018B1206CA2
:103A000040F008002064206C002846D005F020001B
:103A100028B106F0200010B1204600F0B2FF206867
:103A20004069C0F3801A206C00F0080010B9BAF1A8
:103A3000000F2DD0204600F04BFF2068406900F0B9
:103A40004000402820D100BF00BF2168143151E858
:103A5000001F21F040002168143141E80002002AD3
:103A6000F3D100BFA06B50B17548A16B0865A06B86
:103A7000FEF79DFC88B1A06B016D88470DE02046E4
:103A8000FFF76EFF09E009E02046FFF769FF04E059
:103A90002046FFF765FF002020647DE7206B0128AA
:103AA00076D105F01000002872D006F01000002832
:103AB000FAD000BF002000902068006800902068C5
:103AC0004068009000BF00BF2068406900F04000DF
:103AD00040285ED1A06B006840681FFA80F8B8F1FA
:103AE000000F54D0A08D404551DDA4F82E80A06B6E
:103AF000C069B0F5807F43D000BF00BF21680C31A2
:103B000051E8001F21F4807021680C3141E8000267
:103B1000002AF3D100BF00BF00BF2168143151E873
:103B2000001F21F001002168143141E80002002A41
:103B3000F3D100BF00BF00BF2168143151E8001F5E
:103B400021F040002168143141E80002002AF3D13D
:103B500000BF202084F83E000020206300BF00BF8B
:103B600021680C3151E8001F21F0100021680C3150
:103B700041E80002002AF3D100BFA06BFEF7C1FBB1
:103B8000A08DE28D801A81B22046FFF7E8FE03E7A0
:103B900040E0A08DE18D401A1FFA80F8E08DC0B39F
:103BA000B8F1000F35D000BF00BF21680C3151E8DB
:103BB000001F21F4907021680C3141E80002002AB6
:103BC000F3D100BF00BF00BF2168143151E8001FCE
:103BD00021F001002168143141E80002002AF3D1EC
:103BE00000BF202084F83E000020206300BF00BFFB
:103BF00021680C3151E8001F21F0100021680C31C0
:103C000041E80002002AF3D100BF41462046FFF7F9
:103C1000A6FEC1E605F0800030B106F0800018B1C4
:103C2000204601F0A7F8B7E605F0400030B106F0F5
:103C3000400018B1204600F081FEADE600BFABE6C3
:103C40003747000810B504460CB9012010BDA06923
:103C500000B100E000BF94F83D0028B9002084F8CE
:103C60003C00204600F028F8242084F83D0020681D
:103C7000C06820F400502168C860204600F0FEFEB5
:103C80002068006920F4904021680861206840693C
:103C900020F02A00216848612068C06840F4005084
:103CA0002168C86000202064202084F83D0084F84A
:103CB0003E000020CAE7000010B586B0044614217B
:103CC00001A8FCF7B5FC7E492068884276D100BF88
:103CD000002000907B48006840F01000794908609F
:103CE0000846006800F01000009000BF00BF00BF51
:103CF0000020009073481438006840F001007149BA
:103D0000143908600846006800F00100009000BF08
:103D100000BF4FF4C0600190022002900020039089
:103D2000032004900720059001A96748FEF748FD8D
:103D30006648674908604FF0006048604021644869
:103D400081600021C1604FF4806101610021416107
:103D50008161C16101624162FEF75EFC08B1FEF75C
:103D6000CDFA00BF5A486063846300BF5748783873
:103D7000584908604FF00060486000215548816054
:103D8000C1604FF480610161002141618161C161C5
:103D900001624162FEF740FC08B1FEF7AFFA00BFD6
:103DA0004C48A063846300BF002211462520FEF723
:103DB00099FE2520FEF786FE80E0FFE74649206851
:103DC00088427BD100BF002000903E48001F006861
:103DD00040F400303B49091F08600846006800F4C1
:103DE0000030009000BF00BF00BF002000903548A9
:103DF0001438006840F00100324914390860084660
:103E0000006800F00100009000BF00BF0C2001908E
:103E100002200290002003900320049007200590C8
:103E200001A92948FEF7CCFC2C482D4908604FF029
:103E30000060486040212A4881600021C1604FF441
:103E400080610161002141618161C1614FF40031F4
:103E5000016200214162FEF7DFFB08B1FEF74EFA76
:103E600000BF1F486063846300BF1C4818381D49A9
:103E700008604FF00060486000211A488160C1600E
:103E80004FF480610161002141618161C1614FF4A2
:103E90000031016200214162FEF7BEFB08B1FEF76E
:103EA0002DFA00BF0F48A063846300BF00221146B3
:103EB0002620FEF717FE2620FEF704FE06B010BDF2
:103EC000001001404438024000000240B864024043
:103ED00058010020B801002000440040A0600240CA
:103EE000180200207802002070B504460D461646E0
:103EF00094F83E00202816D105B10EB9012070BDFE
:103F000000BF94F83C00012801D10220F7E701200E
:103F100084F83C0000BF002020633246294620463A
:103F200000F0C2FEEBE70220E9E70000064A016864
:103F300012681268914206D10121044A11700249A7
:103F400009680968496870471000002019000020BE
:103F500070472DE9F84F04460E46174699464FF034
:103F6000000A94F83D0020285AD106B117B9012063
:103F7000BDE8F88F00BF94F83C00012801D1022071
:103F8000F6E7012084F83C0000BF002020642120D7
:103F900084F83D00FEF71CFD8246A784E784A068F4
:103FA000B0F5805F04D1206910B90025B04602E069
:103FB00035464FF0000800BF002084F83C0000BFE9
:103FC0001BE05346002280212046CDF8009000F0EF
:103FD00001FF08B10320CBE745B9B8F80000C0F3F2
:103FE00008002168486008F1020803E02878216889
:103FF00048606D1CE08C401EE084E08C0028E0D11D
:104000005346002240212046CDF8009000F0E2FE09
:1040100008B10320ACE7202084F83D000020A7E78A
:104020000220A5E7F7B50446154694F83D00202880
:1040300046D1019800B10DB90120FEBD00BF94F832
:104040003C00012801D10220F7E7012084F83C0060
:1040500000BF01982062A584E5840020206421200F
:1040600084F83D001748616BC8631748616B0864AA
:104070001648616BC8640020616B086501AE236857
:104080001A1D31682B46606BFEF73CFB6FF0400059
:104090002168086000BF002084F83C0000BF00BF1A
:1040A00000BF2168143151E8001F41F080002168F1
:1040B000143141E80002002AF3D100BF0020BCE720
:1040C0000220BAE76B480008C34800084B470008C5
:1040D000064A016812681268914206D10121044A19
:1040E000117002490968096849687047100000208A
:1040F00018000020704700BFFEE7000008B500BFB1
:10410000002000901E48006840F480001C490860B0
:104110000846006800F48000009000BF00BF00BFA8
:10412000002000900846006840F40010086008462F
:10413000006800F40010009000BF00BF002211468C
:104140001020FEF7CFFC1020FEF7BCFC0022114629
:104150001120FEF7C7FC1120FEF7B4FC0022114627
:104160003A20FEF7BFFC3A20FEF7ACFC00221146D5
:104170004620FEF7B7FC4620FEF7A4FC08BD000071
:104180003038024000B587B0142102A8FCF750FA7D
:1041900000BF002001902848006840F00400264934
:1041A00008600846006800F00400019000BF00BFEE
:1041B00000BF002001900846006840F080000860C1
:1041C0000846006800F08000019000BF00BF00BFFB
:1041D000002001900846006840F001000860084691
:1041E000006800F00100019000BF00BF01224EF204
:1041F00010011248FEF7E6FB002220210F48FEF7CF
:10420000E1FB4FF4604002900120039000200490F5
:10421000059002A90948FEF7D3FA30200290012048
:104220000390002004900320059002A90348FEF7A4
:10423000C7FA07B000BD0000303802400008024055
:1042400000B587B00020039004900590069001907F
:1042500002904FF0804013490860532048600021CD
:1042600010488160491EC160002101618161FFF732
:104270008FF808B1FEF742F84FF48050039003A97D
:104280000848FFF717F908B1FEF738F80020019049
:10429000029001A90348FFF721F808B1FEF72EF8B4
:1042A00007B000BD4000002000B58BB00020079093
:1042B000089009900A900590069001900290039052
:1042C00004901E481E4908605320486000211C4885
:1042D0008160491EC160002101618161FFF758F8CA
:1042E00008B1FEF70BF84FF48050079007A9144867
:1042F000FFF7E0F808B1FEF701F81148FFF713FAED
:1043000008B1FDF7FBFF00200590069005A90C48B9
:10431000FEF7E4FF08B1FDF7F1FF00200190012056
:104320000290002003900490002201A90448FFF7A6
:104330008BF908B1FDF7E2FF0BB000BD000C0040A7
:104340008800002010B50B480B4908604FF4E1309D
:104350004860002108488160C16001610C21416111
:1043600000218161C161FFF76DFC08B1FDF7C6FF57
:1043700010BD000000100140D000002010B50D4815
:104380000D4908604FF4E13048604FF480510A480D
:1043900081600021C1604FF4806101610C214161A5
:1043A00000218161C161FFF74DFC08B1FDF7A6FF57
:1043B00010BD0000004400401401002000BFFEE7D3
:1043C00000BFFEE77047704710B5FEF707FB10BD52
:1043D00000B593B0302107A8FCF72AF9142102A8F0
:1043E000FCF726F900BF002001902448006840F047
:1043F0008050224908600846006800F08050019013
:1044000000BF00BF00BF002001901D48006840F4BD
:1044100080401B4908600846006800F48040019015
:1044200000BF00BF012007900004089002200D90FB
:1044300041050E9104210F91A821109102211191A3
:104440000421129107A8FEF7DFFC08B1FDF756FF23
:104450000F20029002200390002004904FF4A050FF
:1044600005904FF480500690052102A8FEF78CFBC2
:1044700008B1FDF743FF13B000BD00004038024013
:10448000007000400348006840F470000149086073
:104490007047000088ED00E010B50248FFF777F99B
:1044A00010BD00008800002010B50268294B98421A
:1044B0000ED0B0F1804F0BD0274B984208D0274B3D
:1044C000984205D0264B984202D0264B984203D101
:1044D00022F070024B681A431E4B984220D0B0F174
:1044E000804F1DD01C4B98421AD01C4B984217D0BD
:1044F0001B4B984214D01B4B984211D01A4B984238
:104500000ED01A4B98420BD0194B984208D0194B39
:10451000984205D0184B984202D0184B984203D1CC
:1045200022F44072CB681A4322F080034C6943EABC
:10453000040202608B68C3620B688362054B984279
:1045400002D0084B984201D10B69036301234361F8
:1045500010BD0000000001400004004000080040C1
:10456000000C0040000401400040014000440140B4
:104570000048014000180040001C0040002000409E
:1045800030B50C46816821F47F4142EA032525437A
:104590002943816030BD0A46816821F0700142F0F4
:1045A000070319438160704730B50B461446026A11
:1045B000056A25F001050562816921F0F00141EAF3
:1045C000041122F00A021A438161026230BD000028
:1045D00070B50C461546066A26F00106066281692A
:1045E000026A184EB04214D0B0F1804F11D0164E6E
:1045F000B0420ED0154EB0420BD0154EB04208D08E
:10460000144EB04205D0144EB04202D0134EB04208
:1046100001D1012600E000261EB121F0030129434B
:1046200001E041F0010121F0F001F02606EA031655
:10463000314322F00A0204F00A0632438161026229
:1046400070BD000000000140000400400008004070
:10465000000C0040000401400040014000180040F0
:1046600030B50B461446056A25F0100505628169D0
:10467000026A21F4704141EA043122F0A00242EAC8
:1046800003128161026230BD70B50C461546066AA0
:1046900026F0100606628169026A21F4407141EA3F
:1046A000052121F470414FF4704606EA0336314388
:1046B00022F0A002A02606EA0416324381610262BB
:1046C00070BD70B50C461546066A26F48076066203
:1046D000C169026A21F00301294321F0F001F026AB
:1046E00006EA0316314322F420624FF4206606EAFC
:1046F00004263243C161026270BD70B50C46154696
:10470000066A26F480560662C169026A21F4407185
:1047100041EA052121F470414FF4704606EA033660
:10472000314322F420424FF4204606EA0436324355
:10473000C161026270BD70B50546AC6B0020E085BA
:10474000E0842046FFF70CF970BD70B506460025E1
:10475000B46B20684069C0F3C01594F83D0021286F
:1047600005D125B10020E084204600F0F7F820684C
:104770004069C0F3801594F83E00222805D125B188
:104780000020E085204600F0A3F8206C40F01000E7
:1047900020642046FFF7E4F870BD70B50546AC6BA9
:1047A0002868006800F48070002842D1E08500BFCE
:1047B00000BF21680C3151E8001F21F4807021688E
:1047C0000C3141E80002002AF3D100BF00BF00BF56
:1047D0002168143151E8001F21F0010021681431D3
:1047E00041E80002002AF3D100BF00BF00BF2168EA
:1047F000143151E8001F21F040002168143141E8D4
:104800000002002AF3D100BF202084F83E00206B74
:1048100001280ED100BF00BF21680C3151E8001FF4
:1048200021F0100021680C3141E80002002AF3D188
:1048300000BF206B012804D1A18D2046FFF78FF81F
:1048400002E02046FFF772FB70BD70B50546AC6B09
:10485000206B012805D1A08D41082046FFF77FF885
:1048600002E02046FFF774FB70BD70B50546AC6BE7
:104870002868006800F48070F8B90020E08400BF68
:1048800000BF2168143151E8001F21F08000216829
:10489000143141E80002002AF3D100BF00BF00BF7D
:1048A00021680C3151E8001F41F0400021680C31B3
:1048B00041E80002002AF3D102E02046FFF708FC9D
:1048C00070BD70B50446A56B2846FFF713FC70BD9C
:1048D00000BF00BF02680C3252E8002F22F4907132
:1048E00002680C3242E80013002BF3D100BF00BF76
:1048F00000BF0268143252E8002F22F00101026862
:10490000143242E80013002BF3D100BF016B0129E0
:104910000ED100BF00BF02680C3252E8002F22F017
:10492000100102680C3242E80013002BF3D100BFE3
:10493000202180F83E1000210163704710B5044625
:104940002068C06820F040002168C860202084F8FA
:104950003D002046FFF7BCFB002010BD00BF00BF9C
:1049600002680C3252E8002F22F0C00102680C32BB
:1049700042E80013002BF3D100BF202180F83D1046
:104980007047F8B5044694F83E00222873D1A06819
:10499000B0F5805F0CD1206950B90025A66A206867
:1049A0004068C0F308003080A06A801CA06215E057
:1049B000A56A0026A068B0F5805F03D0A06828B97A
:1049C000206918B920684068287004E020684068B1
:1049D00000F07F002870A06A401CA062E08D401E9D
:1049E00080B2E085002844D12068C06820F0200013
:1049F0002168C8602068C06820F480702168C860A1
:104A00002068406920F0010021684861202084F876
:104A10003E00206B012826D10020206300BF00BF8C
:104A200021680C3151E8001F21F0100021680C3181
:104A300041E80002002AF3D100BF2068006800F0BE
:104A4000100010280AD100BF0020009020680068E4
:104A5000009020684068009000BF00BFA18D2046F4
:104A6000FEF77DFF02E02046FFF760FA0020F8BD68
:104A700001E00020FBE70220F9E700002DE9F84FF4
:104A800004462068006920F44050E168084321682A
:104A900008612169A068084361690843E169084326
:104AA00000902068C06849F20C618843009908436F
:104AB0002168C8602068406920F44070A1690843FB
:104AC0002168486176492068884203D0754920688A
:104AD000884203D1FEF730F9814602E0FEF71CF967
:104AE0008146E069B0F5004F6CD102206168A0FBFF
:104AF000015003461920A9FB007001462A4638469A
:104B0000FBF7C4FB6421B0FBF1F04FEA001A02206E
:104B10006168A0FB01510B461920A9FB00712A46D0
:104B20003846FBF7B3FB834602206168A0FB0150C7
:104B300003461920A9FB00712A463846FBF7A6FB5D
:104B40006421B0FBF1F000EBC00101EB0010ABEB16
:104B50008000322101EBC0006421B0FBF1F000F0D5
:104B6000F8000AEB400A02206168A0FB01500346EE
:104B70001920A9FB007001462A463846FBF786FB40
:104B8000834602206168A0FB015003461920A9FB5F
:104B900000712A463846FBF779FB6421B0FBF1F03F
:104BA00000EBC00101EB0010ABEB8000322101EB08
:104BB000C0006421B0FBF1F000F007005044216810
:104BC00088606AE004206168A0FB01500346192058
:104BD000A9FB007001462A463846FBF757FB824680
:104BE00004206168A0FB015003461920A9FB007056
:104BF00001462A463846FBF749FB6421B0FBF1F039
:104C000000EBC00101EB0010AAEB8000322101EBA8
:104C100000106421B0FBF1F000F0F00A042061689C
:104C2000A0FB017003461920A9FB00513A46284613
:104C3000FBF72CFB6421B0FBF1F00AEB001A042017
:104C40006168A0FB01510B461920A9FB00712A469F
:104C50003846FBF71BFB834604206168A0FB01502C
:104C600003461920A9FB007001462A463846FBF787
:104C70000DFB6421B0FBF1F000EBC00101EB001073
:104C8000ABEB8000322101EB00106421B0FBF1F0AE
:104C900000F00F00504421688860BDE8F88F0000E4
:104CA000001001400014014077B581B0044615465C
:104CB0000298A062A58500202064222084F83E008E
:104CC0002948A16BC8632948A16B08642848A16BD7
:104CD000C8640020A16B086502AE32682368191D04
:104CE0002B46A06BFDF70EFD00BF00200090206852
:104CF0000068009020684068009000BF00BF00BFBF
:104D0000002084F83C0000BF00BF00BF21680C31C8
:104D100051E8001F41F4807021680C3141E8000225
:104D2000002AF3D100BF00BF00BF2168143151E851
:104D3000001F41F001002168143141E80002002AFF
:104D4000F3D100BF00BF00BF2168143151E8001F3C
:104D500041F040002168143141E80002002AF3D1FB
:104D600000BF002004B070BD9B4700084B480008FE
:104D70004B470008014691F83D00212828D188685A
:104D8000B0F5805F0BD1086948B90A6A1088C0F392
:104D900008000B685860086A801C086205E00B6A0E
:104DA000581C086218780B685860C88C401E80B286
:104DB000C88458B90868C06820F080000B68D860C3
:104DC0000868C06840F040000B68D8600020704759
:104DD0000220FCE72DE9F04104460D4617469846AF
:104DE000069E34E0701C88B32EB1FDF7F1FDA0EBF8
:104DF0000800B0422BD900BF00BF21680C3151E838
:104E0000001F21F4D07021680C3141E80002002A13
:104E1000F3D100BF00BF00BF2168143151E8001F6B
:104E200021F001002168143141E80002002AF3D189
:104E300000BF202084F83D0084F83E0000BF002021
:104E400084F83C0000BF0320BDE8F081FFE7206844
:104E500000682840A84201D1012000E00020B842AB
:104E6000C0D00020F0E7000010B50248FEF77AFD40
:104E700010BD0000D000002010B50248FEF772FD02
:104E800010BD00001401002000BFFEE703B401982C
:104E90004100009850EAC12018BF04204A0D18BFF5
:104EA00040F0010040F2FF72B2EB515F08BF40F0EA
:104EB0000200012808BF052002B0704702480068C0
:104EC000C0F30220704700000CED00E010B5002890
:104ED00004DB0A07130E054A135406E00A07140EF2
:104EE000034A00F00F031B1FD45410BD00E400E080
:104EF00018ED00E030380A2801D201207047002068
:104F00007047000013B50C4664230122694603482C
:104F10000068FFF71EF800981CBD00001400002078
:104F20007CB505460024002001907F2000900122DE
:104F300010211148FDF746FD002220210E48FDF703
:104F400041FD6420FDF728FC012220210A48FDF7DD
:104F500039FD6420FDF720FC0121684600F0BAF815
:104F6000064A012101A800F097F89DF8040079286D
:104F700000D1012420467CBD00080240ED4F00080E
:104F800070B504460D46204600F080F8284600F033
:104F9000BBF8206840682046FFF7C2FF30B9002206
:104FA0004FF400410B48FDF70DFD05E000224FF4E2
:104FB00000510848FDF706FD0748FCF779FB064855
:104FC000FCF7CAFB0448FCF731FB0348FCF7E8FB9D
:104FD00070BD000000080240D802002010B5024851
:104FE000FCF7E0FB10BD0000D802002010B504461D
:104FF000FDF7EEFC06490968401AB0F57A7F06D93C
:10500000FDF7E6FC0249086002A0FBF7B7F910BD06
:10501000000000200A5B686F7374426F6F744C6FFE
:10502000616465725F7265616443616C6C42616367
:105030006B5D207761697474696E67207265737047
:105040006F6E73652066726F6D2064657669636547
:105050000A000000FDF7CEFCFFF7BAF9FFF792F85F
:10506000FFF74CF8FFF7ECF8FFF76CF9FFF786F95C
:10507000FFF71AF903490448FFF782FF01E0FFF741
:10508000ADFFFCE7D00000201401002001490860BA
:1050900070470000100000202DE9F04104460D4645
:1050A000164600272A46214608480068FEF71CFFDE
:1050B000074601E00020B047054800780028F9D0F5
:1050C0000020034908703846BDE8F0811000002038
:1050D0001900002070B504460D4600262A462146D8
:1050E00007480068FEF79EFF064600BF05480078A7
:1050F0000028FBD0002003490870304670BD000036
:1051000010000020180000200149086070470000CE
:105110001400002010B500290AD00878002807D014
:1051200005487844FBF772FE002801D0002010BD2E
:105130000248784410BD0000E6030000DE030000D2
:105140000808A0F500114FEA3101704743004FEA0B
:10515000D30C4FEA3C0C43401FBF40070CF1605199
:1051600013F0FE4F70471CF0006F03D100200CF0CD
:10517000004170470CF0004343EA507010B540EA1C
:10518000CC0000F00EF800BF000000924FEA0001D2
:10519000FFF7D6BF4FF000414FF00000A1F500210E
:1051A00070470EF1020E2EF0030E5EF8044B2442FF
:1051B00004D44FEA4102B2F17F4F11D84FEA4003C5
:1051C000B3F17F4F0CD80ED14FEAD07CB2F17F4FB4
:1051D0000CEB4C0C0CF1020C08BF4CEBD17C04E046
:1051E0004FF0080C01E04FEAD17C0CEB4C0324FAA1
:1051F00003F404F00704B4F1040C06D20EEB840CA3
:10520000BDE810404CF0010C6047DFE80CF00708E7
:1052100002024FF00040A0F5800010BD0846420099
:1052200018BFD2F1807288BF00F0004010BD4FF06F
:105230004070E1EE100A7047FBF756BB00061016EF
:105240000006101600000000000000000102030428
:105250000607080900000000010203043031323360
:10526000343536373839414243444546403058009A
:1052700030313233343536373839616263646566CC
:105280004030780004000008000000000000000228
:10529000000100001000000002400000000000A01B
:1052A0000000000005400000000000C800000000F1
:1052B0000C4000000000409C00000000194000006D
:1052C0000020BCBE0000000034400000BFC91B8E9F
:1052D00000000004B5400000504BCFD06607E2CF7D
:1052E000010000006C4100003E8251AADFEEA734AD
:1052F00001000000D9420000DCB5A0E23A301F975F
:10530000FFFFFFFFB4450000FD25A0C8E9A3C14F82
:10531000FFFFFFFFFF3F00000000008000000000D3
:10532000FF3F000000000080000000004D6F72652C
:10533000207468656E2074776F20627974657320BD
:1053400073656E7420696E20746865205049442C22
:1053500020756E6B6E6F776E2F756E737570706FD4
:1053600072746564206465766963650A00000000F4
:105370005B424C5F636F6D6D616E645F70726F63F3
:105380006573735D2050726F6772616D6D696E67D2
:10539000207375636365737366756C6C202E2E2E97
:1053A0002E20726573657420616E642072756E0ABA
:1053B000000000005B424C5F636F6D6D616E645F67
:1053C000676574496E666F6D6174696F6E5D0A62C0
:1053D0006C5F76657273696F6E203A20307825783D
:1053E0000A676574203A20307825780A677672203B
:1053F0003A20307825780A676964203A2030782589
:10540000780A726D203A20307825780A676F203A42
:1054100020307825780A776D203A20307825780A70
:105420006572203A20307825780A7770203A20304B
:105430007825780A7577203A20307825780A7270B6
:10544000203A20307825780A7572203A2030782565
:10545000780A00004661696C656420746F20766587
:105460007269667920617420616464726573732067
:105470003078253038782C206578706563746564E1
:105480002030782530327820616E6420666F756E2A
:1054900064203078253032780A0000005B424C5F8F
:1054A000636F6D6D616E645F676574566572736975
:1054B0006F6E5D2076657273696F6E203A2030786A
:1054C00025780A206F7074696F6E31203A20307829
:1054D00025780A206F7074696F6E32203A20307818
:1054E00025780A2000000000245500080000002054
:1054F00040000000C401000864550008400000207E
:10550000100A0000E00100081C0000004300000039
:10551000F8FFFFFF0C0000000E0000000F0000006D
:105520002E0000000000000000000000000000004D
:10553000000000000000000000000000000000006B
:10554000000000000000000000000000000000005B
:10555000000000000000000010000000010000003A
:045560000024F4002F
:040000050800018965
:00000001FF
